{
  "contractName": "Meme",
  "abi": [
    {
      "inputs": [],
      "payable": false,
      "stateMutability": "nonpayable",
      "type": "constructor"
    },
    {
      "anonymous": false,
      "inputs": [
        {
          "indexed": false,
          "internalType": "uint256",
          "name": "id",
          "type": "uint256"
        },
        {
          "indexed": false,
          "internalType": "string",
          "name": "name",
          "type": "string"
        },
        {
          "indexed": false,
          "internalType": "uint256",
          "name": "price",
          "type": "uint256"
        },
        {
          "indexed": false,
          "internalType": "address payable",
          "name": "owner",
          "type": "address"
        },
        {
          "indexed": false,
          "internalType": "uint256",
          "name": "upvotes",
          "type": "uint256"
        },
        {
          "indexed": false,
          "internalType": "uint256",
          "name": "downvotes",
          "type": "uint256"
        },
        {
          "indexed": false,
          "internalType": "bool",
          "name": "challenged",
          "type": "bool"
        },
        {
          "indexed": false,
          "internalType": "bool",
          "name": "purchased",
          "type": "bool"
        }
      ],
      "name": "MemeChallenged",
      "type": "event"
    },
    {
      "anonymous": false,
      "inputs": [
        {
          "indexed": false,
          "internalType": "uint256",
          "name": "id",
          "type": "uint256"
        },
        {
          "indexed": false,
          "internalType": "string",
          "name": "name",
          "type": "string"
        },
        {
          "indexed": false,
          "internalType": "uint256",
          "name": "price",
          "type": "uint256"
        },
        {
          "indexed": false,
          "internalType": "address payable",
          "name": "owner",
          "type": "address"
        },
        {
          "indexed": false,
          "internalType": "uint256",
          "name": "upvotes",
          "type": "uint256"
        },
        {
          "indexed": false,
          "internalType": "uint256",
          "name": "downvotes",
          "type": "uint256"
        },
        {
          "indexed": false,
          "internalType": "bool",
          "name": "challenged",
          "type": "bool"
        },
        {
          "indexed": false,
          "internalType": "bool",
          "name": "purchased",
          "type": "bool"
        }
      ],
      "name": "MemeCreated",
      "type": "event"
    },
    {
      "anonymous": false,
      "inputs": [
        {
          "indexed": false,
          "internalType": "uint256",
          "name": "id",
          "type": "uint256"
        },
        {
          "indexed": false,
          "internalType": "string",
          "name": "name",
          "type": "string"
        },
        {
          "indexed": false,
          "internalType": "uint256",
          "name": "price",
          "type": "uint256"
        },
        {
          "indexed": false,
          "internalType": "address payable",
          "name": "owner",
          "type": "address"
        },
        {
          "indexed": false,
          "internalType": "uint256",
          "name": "upvotes",
          "type": "uint256"
        },
        {
          "indexed": false,
          "internalType": "uint256",
          "name": "downvotes",
          "type": "uint256"
        },
        {
          "indexed": false,
          "internalType": "bool",
          "name": "challenged",
          "type": "bool"
        },
        {
          "indexed": false,
          "internalType": "bool",
          "name": "purchased",
          "type": "bool"
        }
      ],
      "name": "MemePurchased",
      "type": "event"
    },
    {
      "anonymous": false,
      "inputs": [
        {
          "indexed": false,
          "internalType": "uint256",
          "name": "id",
          "type": "uint256"
        },
        {
          "indexed": false,
          "internalType": "string",
          "name": "name",
          "type": "string"
        },
        {
          "indexed": false,
          "internalType": "uint256",
          "name": "price",
          "type": "uint256"
        },
        {
          "indexed": false,
          "internalType": "address payable",
          "name": "owner",
          "type": "address"
        },
        {
          "indexed": false,
          "internalType": "uint256",
          "name": "upvotes",
          "type": "uint256"
        },
        {
          "indexed": false,
          "internalType": "uint256",
          "name": "downvotes",
          "type": "uint256"
        },
        {
          "indexed": false,
          "internalType": "bool",
          "name": "challenged",
          "type": "bool"
        },
        {
          "indexed": false,
          "internalType": "bool",
          "name": "purchased",
          "type": "bool"
        }
      ],
      "name": "MemeVoted",
      "type": "event"
    },
    {
      "constant": true,
      "inputs": [],
      "name": "memecount",
      "outputs": [
        {
          "internalType": "uint256",
          "name": "",
          "type": "uint256"
        }
      ],
      "payable": false,
      "stateMutability": "view",
      "type": "function"
    },
    {
      "constant": true,
      "inputs": [
        {
          "internalType": "uint256",
          "name": "",
          "type": "uint256"
        }
      ],
      "name": "memes",
      "outputs": [
        {
          "internalType": "uint256",
          "name": "id",
          "type": "uint256"
        },
        {
          "internalType": "string",
          "name": "name",
          "type": "string"
        },
        {
          "internalType": "uint256",
          "name": "price",
          "type": "uint256"
        },
        {
          "internalType": "address payable",
          "name": "owner",
          "type": "address"
        },
        {
          "internalType": "uint256",
          "name": "upvotes",
          "type": "uint256"
        },
        {
          "internalType": "uint256",
          "name": "downvotes",
          "type": "uint256"
        },
        {
          "internalType": "bool",
          "name": "challenged",
          "type": "bool"
        },
        {
          "internalType": "bool",
          "name": "purchased",
          "type": "bool"
        }
      ],
      "payable": false,
      "stateMutability": "view",
      "type": "function"
    },
    {
      "constant": true,
      "inputs": [],
      "name": "name",
      "outputs": [
        {
          "internalType": "string",
          "name": "",
          "type": "string"
        }
      ],
      "payable": false,
      "stateMutability": "view",
      "type": "function"
    },
    {
      "constant": false,
      "inputs": [
        {
          "internalType": "string",
          "name": "_name",
          "type": "string"
        },
        {
          "internalType": "uint256",
          "name": "_price",
          "type": "uint256"
        }
      ],
      "name": "createMeme",
      "outputs": [],
      "payable": false,
      "stateMutability": "nonpayable",
      "type": "function"
    },
    {
      "constant": false,
      "inputs": [
        {
          "internalType": "uint256",
          "name": "_id",
          "type": "uint256"
        }
      ],
      "name": "purchasedMeme",
      "outputs": [],
      "payable": true,
      "stateMutability": "payable",
      "type": "function"
    },
    {
      "constant": false,
      "inputs": [
        {
          "internalType": "uint256",
          "name": "_id",
          "type": "uint256"
        }
      ],
      "name": "challengedMeme",
      "outputs": [],
      "payable": true,
      "stateMutability": "payable",
      "type": "function"
    },
    {
      "constant": false,
      "inputs": [
        {
          "internalType": "uint256",
          "name": "_id",
          "type": "uint256"
        },
        {
          "internalType": "uint256",
          "name": "vote",
          "type": "uint256"
        }
      ],
      "name": "voteMeme",
      "outputs": [],
      "payable": false,
      "stateMutability": "nonpayable",
      "type": "function"
    }
  ],
  "bytecode": "0x608060405260006001553480156200001657600080fd5b506040518060400160405280601081526020017f4d656d65204d61726b6574706c6163650000000000000000000000000000000081525060009080519060200190620000649291906200006b565b506200011a565b828054600181600116156101000203166002900490600052602060002090601f016020900481019282601f10620000ae57805160ff1916838001178555620000df565b82800160010185558215620000df579182015b82811115620000de578251825591602001919060010190620000c1565b5b509050620000ee9190620000f2565b5090565b6200011791905b8082111562000113576000816000905550600101620000f9565b5090565b90565b611495806200012a6000396000f3fe6080604052600436106100705760003560e01c80634f5cd0101161004e5780634f5cd0101461024957806355765e9a1461028e578063c6f0b6e914610360578063d94614991461038e57610070565b806306fdde03146100755780630b7ecc8d14610105578063388f606414610130575b600080fd5b34801561008157600080fd5b5061008a6103bc565b6040518080602001828103825283818151815260200191508051906020019080838360005b838110156100ca5780820151818401526020810190506100af565b50505050905090810190601f1680156100f75780820380516001836020036101000a031916815260200191505b509250505060405180910390f35b34801561011157600080fd5b5061011a61045a565b6040518082815260200191505060405180910390f35b34801561013c57600080fd5b506101696004803603602081101561015357600080fd5b8101908080359060200190929190505050610460565b60405180898152602001806020018881526020018773ffffffffffffffffffffffffffffffffffffffff1673ffffffffffffffffffffffffffffffffffffffff1681526020018681526020018581526020018415151515815260200183151515158152602001828103825289818151815260200191508051906020019080838360005b838110156102075780820151818401526020810190506101ec565b50505050905090810190601f1680156102345780820380516001836020036101000a031916815260200191505b50995050505050505050505060405180910390f35b34801561025557600080fd5b5061028c6004803603604081101561026c57600080fd5b81019080803590602001909291908035906020019092919050505061057a565b005b34801561029a57600080fd5b5061035e600480360360408110156102b157600080fd5b81019080803590602001906401000000008111156102ce57600080fd5b8201836020820111156102e057600080fd5b8035906020019184600183028401116401000000008311171561030257600080fd5b91908080601f016020809104026020016040519081016040528093929190818152602001838380828437600081840152601f19601f82011690508083019250505050505050919291929080359060200190929190505050610968565b005b61038c6004803603602081101561037657600080fd5b8101908080359060200190929190505050610be3565b005b6103ba600480360360208110156103a457600080fd5b8101908080359060200190929190505050610ec4565b005b60008054600181600116156101000203166002900480601f0160208091040260200160405190810160405280929190818152602001828054600181600116156101000203166002900480156104525780601f1061042757610100808354040283529160200191610452565b820191906000526020600020905b81548152906001019060200180831161043557829003601f168201915b505050505081565b60015481565b6002602052806000526040600020600091509050806000015490806001018054600181600116156101000203166002900480601f0160208091040260200160405190810160405280929190818152602001828054600181600116156101000203166002900480156105125780601f106104e757610100808354040283529160200191610512565b820191906000526020600020905b8154815290600101906020018083116104f557829003601f168201915b5050505050908060020154908060030160009054906101000a900473ffffffffffffffffffffffffffffffffffffffff16908060040154908060050154908060060160009054906101000a900460ff16908060060160019054906101000a900460ff16905088565b61058261135c565b600260008481526020019081526020016000206040518061010001604052908160008201548152602001600182018054600181600116156101000203166002900480601f0160208091040260200160405190810160405280929190818152602001828054600181600116156101000203166002900480156106445780601f1061061957610100808354040283529160200191610644565b820191906000526020600020905b81548152906001019060200180831161062757829003601f168201915b50505050508152602001600282015481526020016003820160009054906101000a900473ffffffffffffffffffffffffffffffffffffffff1673ffffffffffffffffffffffffffffffffffffffff1673ffffffffffffffffffffffffffffffffffffffff16815260200160048201548152602001600582015481526020016006820160009054906101000a900460ff161515151581526020016006820160019054906101000a900460ff1615151515815250509050600081600001511180156107135750600154816000015111155b61071c57600080fd5b8060e001511561072b57600080fd5b6000821415610749578060a001805180919060010181525050610764565b600182141561076357806080018051809190600101815250505b5b806002600085815260200190815260200160002060008201518160000155602082015181600101908051906020019061079e9291906113bb565b506040820151816002015560608201518160030160006101000a81548173ffffffffffffffffffffffffffffffffffffffff021916908373ffffffffffffffffffffffffffffffffffffffff1602179055506080820151816004015560a0820151816005015560c08201518160060160006101000a81548160ff02191690831515021790555060e08201518160060160016101000a81548160ff0219169083151502179055509050507fd649e80490ff7717935e1ed986819db67c4f23a855662d101dbf7d1b66f0a451600154826020015183604001513385608001518660a001516001600060405180898152602001806020018881526020018773ffffffffffffffffffffffffffffffffffffffff1673ffffffffffffffffffffffffffffffffffffffff1681526020018681526020018581526020018415151515815260200183151515158152602001828103825289818151815260200191508051906020019080838360005b83811015610922578082015181840152602081019050610907565b50505050905090810190601f16801561094f5780820380516001836020036101000a031916815260200191505b50995050505050505050505060405180910390a1505050565b600082511161097657600080fd5b6000811161098357600080fd5b60016000815480929190600101919050555060405180610100016040528060015481526020018381526020018281526020013373ffffffffffffffffffffffffffffffffffffffff168152602001600081526020016000815260200160001515815260200160001515815250600260006001548152602001908152602001600020600082015181600001556020820151816001019080519060200190610a2a9291906113bb565b506040820151816002015560608201518160030160006101000a81548173ffffffffffffffffffffffffffffffffffffffff021916908373ffffffffffffffffffffffffffffffffffffffff1602179055506080820151816004015560a0820151816005015560c08201518160060160006101000a81548160ff02191690831515021790555060e08201518160060160016101000a81548160ff0219169083151502179055509050507fbd5730fe518100560fb2e0c0f533999deb7facbe5139c987b59bfd5c5e9b373960015483833360008060008060405180898152602001806020018881526020018773ffffffffffffffffffffffffffffffffffffffff1673ffffffffffffffffffffffffffffffffffffffff1681526020018681526020018581526020018415151515815260200183151515158152602001828103825289818151815260200191508051906020019080838360005b83811015610b9e578082015181840152602081019050610b83565b50505050905090810190601f168015610bcb5780820380516001836020036101000a031916815260200191505b50995050505050505050505060405180910390a15050565b610beb61135c565b600260008381526020019081526020016000206040518061010001604052908160008201548152602001600182018054600181600116156101000203166002900480601f016020809104026020016040519081016040528092919081815260200182805460018160011615610100020316600290048015610cad5780601f10610c8257610100808354040283529160200191610cad565b820191906000526020600020905b815481529060010190602001808311610c9057829003601f168201915b50505050508152602001600282015481526020016003820160009054906101000a900473ffffffffffffffffffffffffffffffffffffffff1673ffffffffffffffffffffffffffffffffffffffff1673ffffffffffffffffffffffffffffffffffffffff16815260200160048201548152602001600582015481526020016006820160009054906101000a900460ff161515151581526020016006820160019054906101000a900460ff161515151581525050905060008160000151118015610d7c5750600154816000015111155b610d8557600080fd5b8060400151341015610d9657600080fd5b8060e0015115610da557600080fd5b7ef04ff41d0676e5fa31135284e3d8eb8e6c54d1136f518c98cb4bce9bb9fb96600154826020015183604001513385608001518660a001516001600060405180898152602001806020018881526020018773ffffffffffffffffffffffffffffffffffffffff1673ffffffffffffffffffffffffffffffffffffffff1681526020018681526020018581526020018415151515815260200183151515158152602001828103825289818151815260200191508051906020019080838360005b83811015610e7f578082015181840152602081019050610e64565b50505050905090810190601f168015610eac5780820380516001836020036101000a031916815260200191505b50995050505050505050505060405180910390a15050565b610ecc61135c565b600260008381526020019081526020016000206040518061010001604052908160008201548152602001600182018054600181600116156101000203166002900480601f016020809104026020016040519081016040528092919081815260200182805460018160011615610100020316600290048015610f8e5780601f10610f6357610100808354040283529160200191610f8e565b820191906000526020600020905b815481529060010190602001808311610f7157829003601f168201915b50505050508152602001600282015481526020016003820160009054906101000a900473ffffffffffffffffffffffffffffffffffffffff1673ffffffffffffffffffffffffffffffffffffffff1673ffffffffffffffffffffffffffffffffffffffff16815260200160048201548152602001600582015481526020016006820160009054906101000a900460ff161515151581526020016006820160019054906101000a900460ff1615151515815250509050600081606001519050600082600001511180156110665750600154826000015111155b61106f57600080fd5b816040015134101561108057600080fd5b8160e001511561108f57600080fd5b3373ffffffffffffffffffffffffffffffffffffffff168173ffffffffffffffffffffffffffffffffffffffff1614156110c857600080fd5b33826060019073ffffffffffffffffffffffffffffffffffffffff16908173ffffffffffffffffffffffffffffffffffffffff168152505060018260e0019015159081151581525050816002600085815260200190815260200160002060008201518160000155602082015181600101908051906020019061114b9291906113bb565b506040820151816002015560608201518160030160006101000a81548173ffffffffffffffffffffffffffffffffffffffff021916908373ffffffffffffffffffffffffffffffffffffffff1602179055506080820151816004015560a0820151816005015560c08201518160060160006101000a81548160ff02191690831515021790555060e08201518160060160016101000a81548160ff0219169083151502179055509050508073ffffffffffffffffffffffffffffffffffffffff166108fc349081150290604051600060405180830381858888f1935050505015801561123a573d6000803e3d6000fd5b507f25232f70c882fefe6a6baee3ec12e15961f5f524de993ef2d903d77a070147ae600154836020015184604001513386608001518760a001516000600160405180898152602001806020018881526020018773ffffffffffffffffffffffffffffffffffffffff1673ffffffffffffffffffffffffffffffffffffffff1681526020018681526020018581526020018415151515815260200183151515158152602001828103825289818151815260200191508051906020019080838360005b838110156113165780820151818401526020810190506112fb565b50505050905090810190601f1680156113435780820380516001836020036101000a031916815260200191505b50995050505050505050505060405180910390a1505050565b604051806101000160405280600081526020016060815260200160008152602001600073ffffffffffffffffffffffffffffffffffffffff16815260200160008152602001600081526020016000151581526020016000151581525090565b828054600181600116156101000203166002900490600052602060002090601f016020900481019282601f106113fc57805160ff191683800117855561142a565b8280016001018555821561142a579182015b8281111561142957825182559160200191906001019061140e565b5b509050611437919061143b565b5090565b61145d91905b80821115611459576000816000905550600101611441565b5090565b9056fea265627a7a72315820c8e69ee99b65d2ddf66bb47178624ee23cbda40486823f3090f1067662d2e00864736f6c63430005100032",
  "source": "pragma solidity ^0.5.0;\r\n\r\ncontract Meme {\r\n    string public name;\r\n    uint public memecount = 0;\r\n    mapping(uint => Meme) public memes;\r\n\r\n    struct Meme {\r\n        uint id;\r\n        string name;\r\n        uint price;\r\n        address payable owner;\r\n        uint upvotes;\r\n        uint downvotes;\r\n        bool challenged;\r\n        bool purchased;\r\n    }\r\n\r\n    event MemeCreated(\r\n        uint id,\r\n        string name,\r\n        uint price,\r\n        address payable owner,\r\n        uint upvotes,\r\n        uint downvotes,\r\n        bool challenged,\r\n        bool purchased\r\n    );\r\n\r\n    event MemePurchased(\r\n        uint id,\r\n        string name,\r\n        uint price,\r\n        address payable owner,\r\n        uint upvotes,\r\n        uint downvotes,\r\n        bool challenged,\r\n        bool purchased\r\n    );\r\n    event MemeChallenged(\r\n        uint id,\r\n        string name,\r\n        uint price,\r\n        address payable owner,\r\n        uint upvotes,\r\n        uint downvotes,\r\n        bool challenged,\r\n        bool purchased\r\n    );\r\n    event MemeVoted(\r\n        uint id,\r\n        string name,\r\n        uint price,\r\n        address payable owner,\r\n        uint upvotes,\r\n        uint downvotes,\r\n        bool challenged,\r\n        bool purchased\r\n    );\r\n\r\n    constructor() public {\r\n    name = \"Meme Marketplace\";\r\n}\r\n\r\nfunction createMeme(string memory _name, uint _price) public {\r\n    require(bytes(_name).length >0);\r\n    require(_price>0);\r\n    memecount++;\r\n    memes[memecount] = Meme(memecount, _name, _price, msg.sender, 0,0,false,false);\r\n    emit MemeCreated(memecount, _name, _price, msg.sender,0,0,false,false);\r\n}\r\n\r\nfunction purchasedMeme(uint _id) public payable {\r\n\r\n    Meme memory _meme = memes[_id];\r\n    address payable _seller = _meme.owner;\r\n    require(_meme.id>0&&_meme.id<= memecount);\r\n    require(msg.value>= _meme.price);\r\n    require(!_meme.purchased);\r\n    require(_seller != msg.sender);\r\n    _meme.owner = msg.sender;\r\n    _meme.purchased = true;\r\n    memes[_id] = _meme;\r\n    address(_seller).transfer(msg.value);\r\n    emit MemePurchased(memecount, _meme.name,_meme.price,msg.sender,_meme.upvotes,_meme.downvotes,false,true);\r\n}\r\n\r\nfunction challengedMeme(uint _id) public payable {\r\n    Meme memory _meme =  memes[_id];\r\n    require(_meme.id>0&&_meme.id<= memecount);\r\n    require(msg.value>= _meme.price);\r\n    require(!_meme.purchased);\r\n    //require(_seller != msg.sender);\r\n    \r\n    \r\n    emit MemeChallenged(memecount, _meme.name,_meme.price,msg.sender,_meme.upvotes,_meme.downvotes,true,false);\r\n}\r\n\r\nfunction voteMeme(uint _id, uint vote ) public {\r\n    Meme memory _meme =  memes[_id];\r\n    require(_meme.id>0&&_meme.id<= memecount);\r\n    require(!_meme.purchased);\r\n    if(vote== 0) _meme.downvotes++;\r\n    else if(vote==1) _meme.upvotes++;\r\n    memes[_id] = _meme;\r\n\r\n    emit MemeVoted(memecount, _meme.name,_meme.price,msg.sender,_meme.upvotes,_meme.downvotes,true,false);\r\n\r\n}\r\n\r\n\r\n}",
  "sourcePath": "C:/Users/rpa30/Desktop/SDP_Meme/Project_Meme_Marketplace/src/contracts/Meme.sol",
  "compiler": {
    "name": "solc",
    "version": "0.5.16+commit.9c3226ce.Emscripten.clang"
  },
  "schemaVersion": "3.2.3",
  "updatedAt": "2020-11-09T22:56:52.606Z",
  "networkType": "ethereum",
  "devdoc": {
    "methods": {}
  },
  "userdoc": {
    "methods": {}
  }
}